{
  "address": "0xAC77265d28Ce6A5419222A72A3739c6FA601aFC3",
  "abi": [
    {
      "inputs": [],
      "stateMutability": "payable",
      "type": "constructor"
    },
    {
      "anonymous": false,
      "inputs": [
        {
          "indexed": true,
          "internalType": "address",
          "name": "player",
          "type": "address"
        },
        {
          "indexed": false,
          "internalType": "uint256",
          "name": "roll",
          "type": "uint256"
        }
      ],
      "name": "Roll",
      "type": "event"
    },
    {
      "anonymous": false,
      "inputs": [
        {
          "indexed": false,
          "internalType": "address",
          "name": "winner",
          "type": "address"
        },
        {
          "indexed": false,
          "internalType": "uint256",
          "name": "amount",
          "type": "uint256"
        }
      ],
      "name": "Winner",
      "type": "event"
    },
    {
      "inputs": [],
      "name": "nonce",
      "outputs": [
        {
          "internalType": "uint256",
          "name": "",
          "type": "uint256"
        }
      ],
      "stateMutability": "view",
      "type": "function"
    },
    {
      "inputs": [],
      "name": "prize",
      "outputs": [
        {
          "internalType": "uint256",
          "name": "",
          "type": "uint256"
        }
      ],
      "stateMutability": "view",
      "type": "function"
    },
    {
      "inputs": [],
      "name": "rollTheDice",
      "outputs": [],
      "stateMutability": "payable",
      "type": "function"
    },
    {
      "stateMutability": "payable",
      "type": "receive"
    }
  ],
  "transactionHash": "0x48518562256b8f372bed7c8a6618654eeb10794b2cd29e8f06d66a6b6ed19f6d",
  "args": [],
  "solcInputHash": "70d43860eb08d04ae7b66baeb982a510",
  "bytecode": "0x60806040526000808055600155610014610019565b610084565b606461002647600a610057565b6100309190610035565b600155565b60008261005257634e487b7160e01b600052601260045260246000fd5b500490565b600081600019048311821515161561007f57634e487b7160e01b600052601160045260246000fd5b500290565b6104c0806100936000396000f3fe6080604052600436106100385760003560e01c80637d789dee14610044578063affed0e01461004e578063e3ac5d261461007657600080fd5b3661003f57005b600080fd5b61004c61008c565b005b34801561005a57600080fd5b5061006460005481565b60405190815260200160405180910390f35b34801561008257600080fd5b5061006460015481565b66071afd498d00003410156100e85760405162461bcd60e51b815260206004820152601b60248201527f4661696c656420746f2073656e6420656e6f7567682076616c7565000000000060448201526064015b60405180910390fd5b60006100f5600143610418565b409050600081306000546040516020016101349392919092835260609190911b6bffffffffffffffffffffffff19166020830152603482015260540190565b60408051601f1981840301815291905280516020909101209050600061015b60108361044a565b905061018b6040518060400160405280600c81526020016b02a2422902927a6261024a9960a51b815250826102ea565b60008054908061019a8361042f565b90915550606490506101ad3460286103f9565b6101b791906103e5565b600160008282546101c891906103cd565b909155505060405181815233907f3b718dc1d94c683363a5be695e765cb317d67c54b7b1793eaaa35965b39e0ca09060200160405180910390a2600281111561021057505050565b600154604051600090339083908381818185875af1925050503d8060008114610255576040519150601f19603f3d011682016040523d82523d6000602084013e61025a565b606091505b50509050806102a25760405162461bcd60e51b81526020600482015260146024820152732330b4b632b2103a379039b2b7321022ba3432b960611b60448201526064016100df565b6102aa610333565b60408051338152602081018490527f9c2270628a9b29d30ae96b6c4c14ed646ee134febdce38a5b77f2bde9cea2e20910160405180910390a15050505050565b61032f8282604051602401610300929190610370565b60408051601f198184030181529190526020810180516001600160e01b03166309710a9d60e41b17905261034f565b5050565b606461034047600a6103f9565b61034a91906103e5565b600155565b80516a636f6e736f6c652e6c6f67602083016000808483855afa5050505050565b604081526000835180604084015260005b8181101561039e5760208187018101516060868401015201610381565b818111156103b0576000606083860101525b50602083019390935250601f91909101601f191601606001919050565b600082198211156103e0576103e061045e565b500190565b6000826103f4576103f4610474565b500490565b60008160001904831182151516156104135761041361045e565b500290565b60008282101561042a5761042a61045e565b500390565b60006000198214156104435761044361045e565b5060010190565b60008261045957610459610474565b500690565b634e487b7160e01b600052601160045260246000fd5b634e487b7160e01b600052601260045260246000fdfea2646970667358221220851f584a190d48ea90af70a25fcca92aa696990119f4b886f9a0307345fb4cc064736f6c63430008060033",
  "devdoc": {
    "kind": "dev",
    "methods": {},
    "version": 1
  },
  "userdoc": {
    "kind": "user",
    "methods": {},
    "version": 1
  },
  "storageLayout": {
    "storage": [
      {
        "astId": 131,
        "contract": "contracts/DiceGame.sol:DiceGame",
        "label": "nonce",
        "offset": 0,
        "slot": "0",
        "type": "t_uint256"
      },
      {
        "astId": 134,
        "contract": "contracts/DiceGame.sol:DiceGame",
        "label": "prize",
        "offset": 0,
        "slot": "1",
        "type": "t_uint256"
      }
    ],
    "types": {
      "t_uint256": {
        "encoding": "inplace",
        "label": "uint256",
        "numberOfBytes": "32"
      }
    }
  }
}