{
  "address": "0x7756e56f354a1e123785618bBC82F0C1751bf328",
  "abi": [
    {
      "inputs": [],
      "name": "complete",
      "outputs": [],
      "stateMutability": "payable",
      "type": "function"
    },
    {
      "inputs": [],
      "name": "completed",
      "outputs": [
        {
          "internalType": "bool",
          "name": "",
          "type": "bool"
        }
      ],
      "stateMutability": "view",
      "type": "function"
    }
  ],
  "transactionHash": "0x5302eb2afbd4baad49c5cb501731faf33edd70f3f48ee81475470ea849964842",
  "args": [],
  "numDeployments": 1,
  "solcInputHash": "0a8f90275045438281b9f4b8329f362e",
  "bytecode": "0x6080604052348015600f57600080fd5b5060a08061001e6000396000f3fe60806040526004361060265760003560e01c8063522e117714602b5780639d9a7fe914603e575b600080fd5b603c6000805460ff19166001179055565b005b348015604957600080fd5b5060005460569060ff1681565b604051901515815260200160405180910390f3fea26469706673582212200f128e250687f0402888ffa1b24bf703f0bb3424140989a2cc44786e60b1486f64736f6c63430008060033",
  "devdoc": {
    "kind": "dev",
    "methods": {},
    "version": 1
  },
  "userdoc": {
    "kind": "user",
    "methods": {},
    "version": 1
  },
  "storageLayout": {
    "storage": [
      {
        "astId": 3,
        "contract": "contracts/ExampleExternalContract.sol:ExampleExternalContract",
        "label": "completed",
        "offset": 0,
        "slot": "0",
        "type": "t_bool"
      }
    ],
    "types": {
      "t_bool": {
        "encoding": "inplace",
        "label": "bool",
        "numberOfBytes": "1"
      }
    }
  }
}