{
  "address": "0x91C5A4Dd8DcA443562B9dD0BD958D56c3bf5b216",
  "abi": [
    {
      "inputs": [
        {
          "internalType": "address payable",
          "name": "diceGameAddress",
          "type": "address"
        }
      ],
      "stateMutability": "nonpayable",
      "type": "constructor"
    },
    {
      "anonymous": false,
      "inputs": [
        {
          "indexed": true,
          "internalType": "address",
          "name": "previousOwner",
          "type": "address"
        },
        {
          "indexed": true,
          "internalType": "address",
          "name": "newOwner",
          "type": "address"
        }
      ],
      "name": "OwnershipTransferred",
      "type": "event"
    },
    {
      "inputs": [],
      "name": "diceGame",
      "outputs": [
        {
          "internalType": "contract DiceGame",
          "name": "",
          "type": "address"
        }
      ],
      "stateMutability": "view",
      "type": "function"
    },
    {
      "inputs": [],
      "name": "owner",
      "outputs": [
        {
          "internalType": "address",
          "name": "",
          "type": "address"
        }
      ],
      "stateMutability": "view",
      "type": "function"
    },
    {
      "inputs": [],
      "name": "renounceOwnership",
      "outputs": [],
      "stateMutability": "nonpayable",
      "type": "function"
    },
    {
      "inputs": [],
      "name": "riggedRoll",
      "outputs": [],
      "stateMutability": "nonpayable",
      "type": "function"
    },
    {
      "inputs": [
        {
          "internalType": "address",
          "name": "newOwner",
          "type": "address"
        }
      ],
      "name": "transferOwnership",
      "outputs": [],
      "stateMutability": "nonpayable",
      "type": "function"
    },
    {
      "inputs": [
        {
          "internalType": "address",
          "name": "_addr",
          "type": "address"
        },
        {
          "internalType": "uint256",
          "name": "_amount",
          "type": "uint256"
        }
      ],
      "name": "withdraw",
      "outputs": [],
      "stateMutability": "nonpayable",
      "type": "function"
    },
    {
      "stateMutability": "payable",
      "type": "receive"
    }
  ],
  "transactionHash": "0x6e3f6a887a5ef1398f9f18384cd41688d5ba2c9544ae98dc2f0f222ea5317d73",
  "args": [
    "0xAC77265d28Ce6A5419222A72A3739c6FA601aFC3"
  ],
  "solcInputHash": "058f18e736df4e5e72a2a2cdbe0cb998",
  "bytecode": "0x608060405234801561001057600080fd5b5060405161081e38038061081e83398101604081905261002f916100b7565b61003833610067565b600180546001600160a01b039092166001600160a01b03199283168117909155600280549092161790556100e7565b600080546001600160a01b038381166001600160a01b0319831681178455604051919092169283917f8be0079c531659141344cd1fd0a4f28419497f9722a3daafe3b4186f6b6457e09190a35050565b6000602082840312156100c957600080fd5b81516001600160a01b03811681146100e057600080fd5b9392505050565b610728806100f66000396000f3fe6080604052600436106100595760003560e01c80636b5e97f814610065578063715018a61461007c5780638da5cb5b146100915780638e288fd1146100c7578063f2fde38b146100e7578063f3fef3a31461010757600080fd5b3661006057005b600080fd5b34801561007157600080fd5b5061007a610127565b005b34801561008857600080fd5b5061007a61032b565b34801561009d57600080fd5b506000546001600160a01b03165b6040516001600160a01b03909116815260200160405180910390f35b3480156100d357600080fd5b506001546100ab906001600160a01b031681565b3480156100f357600080fd5b5061007a6101023660046105e9565b610391565b34801561011357600080fd5b5061007a61012236600461060b565b61045c565b4766071afd498d00008110156101845760405162461bcd60e51b815260206004820152601b60248201527f4661696c656420746f2073656e6420656e6f7567682076616c7565000000000060448201526064015b60405180910390fd5b60006101916001436106ab565b6002546001546040805163057ff68760e51b815290519340945060009385936001600160a01b0390811693169163affed0e0916004808301926020929190829003018186803b1580156101e357600080fd5b505afa1580156101f7573d6000803e3d6000fd5b505050506040513d601f19601f8201168201806040525081019061021b9190610635565b6040516020016102509392919092835260609190911b6bffffffffffffffffffffffff19166020830152603482015260540190565b60408051601f198184030181529190528051602090910120905060006102776010836106d0565b90506102a76040518060400160405280600c81526020016b02a2422902927a6261024a9960a51b81525082610513565b60028111156102b557600080fd5b600160009054906101000a90046001600160a01b03166001600160a01b0316637d789dee66071afd498d00006040518263ffffffff1660e01b81526004016000604051808303818588803b15801561030c57600080fd5b505af1158015610320573d6000803e3d6000fd5b505050505050505050565b6000546001600160a01b031633146103855760405162461bcd60e51b815260206004820181905260248201527f4f776e61626c653a2063616c6c6572206973206e6f7420746865206f776e6572604482015260640161017b565b61038f600061055c565b565b6000546001600160a01b031633146103eb5760405162461bcd60e51b815260206004820181905260248201527f4f776e61626c653a2063616c6c6572206973206e6f7420746865206f776e6572604482015260640161017b565b6001600160a01b0381166104505760405162461bcd60e51b815260206004820152602660248201527f4f776e61626c653a206e6577206f776e657220697320746865207a65726f206160448201526564647265737360d01b606482015260840161017b565b6104598161055c565b50565b478181101561046a57600080fd5b6000836001600160a01b03168360405160006040518083038185875af1925050503d80600081146104b7576040519150601f19603f3d011682016040523d82523d6000602084013e6104bc565b606091505b505090508061050d5760405162461bcd60e51b815260206004820152601860248201527f4661696c656420746f2077697468647261772045746865720000000000000000604482015260640161017b565b50505050565b610558828260405160240161052992919061064e565b60408051601f198184030181529190526020810180516001600160e01b03166309710a9d60e41b1790526105ac565b5050565b600080546001600160a01b038381166001600160a01b0319831681178455604051919092169283917f8be0079c531659141344cd1fd0a4f28419497f9722a3daafe3b4186f6b6457e09190a35050565b80516a636f6e736f6c652e6c6f67602083016000808483855afa5050505050565b80356001600160a01b03811681146105e457600080fd5b919050565b6000602082840312156105fb57600080fd5b610604826105cd565b9392505050565b6000806040838503121561061e57600080fd5b610627836105cd565b946020939093013593505050565b60006020828403121561064757600080fd5b5051919050565b604081526000835180604084015260005b8181101561067c576020818701810151606086840101520161065f565b8181111561068e576000606083860101525b50602083019390935250601f91909101601f191601606001919050565b6000828210156106cb57634e487b7160e01b600052601160045260246000fd5b500390565b6000826106ed57634e487b7160e01b600052601260045260246000fd5b50069056fea2646970667358221220e6ec26fcc2ff4b083fbe0ee5fd0bfb6c291f9d82b54ee79d7515ef22ee20b0b964736f6c63430008060033",
  "devdoc": {
    "kind": "dev",
    "methods": {
      "owner()": {
        "details": "Returns the address of the current owner."
      },
      "renounceOwnership()": {
        "details": "Leaves the contract without owner. It will not be possible to call `onlyOwner` functions anymore. Can only be called by the current owner. NOTE: Renouncing ownership will leave the contract without an owner, thereby removing any functionality that is only available to the owner."
      },
      "transferOwnership(address)": {
        "details": "Transfers ownership of the contract to a new account (`newOwner`). Can only be called by the current owner."
      }
    },
    "version": 1
  },
  "userdoc": {
    "kind": "user",
    "methods": {},
    "version": 1
  },
  "storageLayout": {
    "storage": [
      {
        "astId": 7,
        "contract": "contracts/RiggedRoll.sol:RiggedRoll",
        "label": "_owner",
        "offset": 0,
        "slot": "0",
        "type": "t_address"
      },
      {
        "astId": 291,
        "contract": "contracts/RiggedRoll.sol:RiggedRoll",
        "label": "diceGame",
        "offset": 0,
        "slot": "1",
        "type": "t_contract(DiceGame)281"
      },
      {
        "astId": 293,
        "contract": "contracts/RiggedRoll.sol:RiggedRoll",
        "label": "dAddress",
        "offset": 0,
        "slot": "2",
        "type": "t_address"
      }
    ],
    "types": {
      "t_address": {
        "encoding": "inplace",
        "label": "address",
        "numberOfBytes": "20"
      },
      "t_contract(DiceGame)281": {
        "encoding": "inplace",
        "label": "contract DiceGame",
        "numberOfBytes": "20"
      }
    }
  }
}