{
  "address": "0xf31cEA731Cd6CC0F60C2280f2084A6D603caA346",
  "abi": [
    {
      "inputs": [
        {
          "internalType": "address",
          "name": "exampleExternalContractAddress",
          "type": "address"
        }
      ],
      "stateMutability": "nonpayable",
      "type": "constructor"
    },
    {
      "anonymous": false,
      "inputs": [
        {
          "indexed": true,
          "internalType": "address",
          "name": "from",
          "type": "address"
        },
        {
          "indexed": false,
          "internalType": "uint256",
          "name": "value",
          "type": "uint256"
        }
      ],
      "name": "Stake",
      "type": "event"
    },
    {
      "inputs": [
        {
          "internalType": "address",
          "name": "",
          "type": "address"
        }
      ],
      "name": "balances",
      "outputs": [
        {
          "internalType": "uint256",
          "name": "",
          "type": "uint256"
        }
      ],
      "stateMutability": "view",
      "type": "function"
    },
    {
      "inputs": [],
      "name": "deadline",
      "outputs": [
        {
          "internalType": "uint256",
          "name": "",
          "type": "uint256"
        }
      ],
      "stateMutability": "view",
      "type": "function"
    },
    {
      "inputs": [],
      "name": "exampleExternalContract",
      "outputs": [
        {
          "internalType": "contract ExampleExternalContract",
          "name": "",
          "type": "address"
        }
      ],
      "stateMutability": "view",
      "type": "function"
    },
    {
      "inputs": [],
      "name": "execute",
      "outputs": [],
      "stateMutability": "nonpayable",
      "type": "function"
    },
    {
      "inputs": [],
      "name": "stake",
      "outputs": [],
      "stateMutability": "payable",
      "type": "function"
    },
    {
      "inputs": [],
      "name": "threshold",
      "outputs": [
        {
          "internalType": "uint256",
          "name": "",
          "type": "uint256"
        }
      ],
      "stateMutability": "view",
      "type": "function"
    },
    {
      "inputs": [],
      "name": "timeLeft",
      "outputs": [
        {
          "internalType": "uint256",
          "name": "timeL",
          "type": "uint256"
        }
      ],
      "stateMutability": "view",
      "type": "function"
    },
    {
      "inputs": [],
      "name": "withdraw",
      "outputs": [],
      "stateMutability": "nonpayable",
      "type": "function"
    },
    {
      "stateMutability": "payable",
      "type": "receive"
    }
  ],
  "transactionHash": "0x2b903d88d703d4b3a89672c6e89e79bf824e97930399ff795c90a27fe457738e",
  "args": [
    "0x7756e56f354a1e123785618bBC82F0C1751bf328"
  ],
  "numDeployments": 1,
  "solcInputHash": "0a8f90275045438281b9f4b8329f362e",
  "bytecode": "0x6080604052610011426203f480610094565b60015534801561002057600080fd5b506040516105f63803806105f683398101604081905261003f91610064565b600280546001600160a01b0319166001600160a01b03929092169190911790556100ba565b60006020828403121561007657600080fd5b81516001600160a01b038116811461008d57600080fd5b9392505050565b600082198211156100b557634e487b7160e01b600052601160045260246000fd5b500190565b61052d806100c96000396000f3fe60806040526004361061007f5760003560e01c80633ccfd60b1161004e5780633ccfd60b1461010657806342cde4e81461011b57806361461954146101375780639f75f2271461014c57600080fd5b80631300a6d11461009357806327e235e3146100bb57806329dcb0cf146100e85780633a4b66f1146100fe57600080fd5b3661008e5761008c610184565b005b600080fd5b34801561009f57600080fd5b506100a86102b1565b6040519081526020015b60405180910390f35b3480156100c757600080fd5b506100a86100d6366004610480565b60006020819052908152604090205481565b3480156100f457600080fd5b506100a860015481565b61008c610184565b34801561011257600080fd5b5061008c6102d5565b34801561012757600080fd5b506100a8670de0b6b3a764000081565b34801561014357600080fd5b5061008c6103c8565b34801561015857600080fd5b5060025461016c906001600160a01b031681565b6040516001600160a01b0390911681526020016100b2565b600260009054906101000a90046001600160a01b03166001600160a01b0316639d9a7fe96040518163ffffffff1660e01b815260040160206040518083038186803b1580156101d257600080fd5b505afa1580156101e6573d6000803e3d6000fd5b505050506040513d601f19601f8201168201806040525081019061020a91906104b0565b1561021457600080fd5b600034116102695760405162461bcd60e51b815260206004820152601a60248201527f63616e27742062757920636f6666656520666f7220667265652100000000000060448201526064015b60405180910390fd5b3360008181526020818152604091829020349081905591519182527febedb8b3c678666e7f36970bc8f57abf6d8fa2e828c0da91ea5b75bf68ed101a910160405180910390a2565b600060015442106102c25750600090565b426001546102d091906104d2565b905090565b600260009054906101000a90046001600160a01b03166001600160a01b0316639d9a7fe96040518163ffffffff1660e01b815260040160206040518083038186803b15801561032357600080fd5b505afa158015610337573d6000803e3d6000fd5b505050506040513d601f19601f8201168201806040525081019061035b91906104b0565b1561036557600080fd5b3360009081526020819052604090205461037e57600080fd5b3360008181526020819052604080822054905181156108fc0292818181858888f193505050501580156103b5573d6000803e3d6000fd5b5033600090815260208190526040812055565b6001544210156104055760405162461bcd60e51b81526020600482015260086024820152676e6f742074696d6560c01b6044820152606401610260565b670de0b6b3a7640000471061047e57600260009054906101000a90046001600160a01b03166001600160a01b031663522e1177476040518263ffffffff1660e01b81526004016000604051808303818588803b15801561046457600080fd5b505af1158015610478573d6000803e3d6000fd5b50505050505b565b60006020828403121561049257600080fd5b81356001600160a01b03811681146104a957600080fd5b9392505050565b6000602082840312156104c257600080fd5b815180151581146104a957600080fd5b6000828210156104f257634e487b7160e01b600052601160045260246000fd5b50039056fea26469706673582212203bb0797360c883da97f1fd512b6549a887096ec1eec0e8f26ab46c3c23c045b464736f6c63430008060033",
  "devdoc": {
    "kind": "dev",
    "methods": {},
    "version": 1
  },
  "userdoc": {
    "kind": "user",
    "methods": {},
    "version": 1
  },
  "storageLayout": {
    "storage": [
      {
        "astId": 20,
        "contract": "contracts/Staker.sol:Staker",
        "label": "balances",
        "offset": 0,
        "slot": "0",
        "type": "t_mapping(t_address,t_uint256)"
      },
      {
        "astId": 29,
        "contract": "contracts/Staker.sol:Staker",
        "label": "deadline",
        "offset": 0,
        "slot": "1",
        "type": "t_uint256"
      },
      {
        "astId": 32,
        "contract": "contracts/Staker.sol:Staker",
        "label": "exampleExternalContract",
        "offset": 0,
        "slot": "2",
        "type": "t_contract(ExampleExternalContract)12"
      }
    ],
    "types": {
      "t_address": {
        "encoding": "inplace",
        "label": "address",
        "numberOfBytes": "20"
      },
      "t_contract(ExampleExternalContract)12": {
        "encoding": "inplace",
        "label": "contract ExampleExternalContract",
        "numberOfBytes": "20"
      },
      "t_mapping(t_address,t_uint256)": {
        "encoding": "mapping",
        "key": "t_address",
        "label": "mapping(address => uint256)",
        "numberOfBytes": "32",
        "value": "t_uint256"
      },
      "t_uint256": {
        "encoding": "inplace",
        "label": "uint256",
        "numberOfBytes": "32"
      }
    }
  }
}