{
  "address": "0x1C9b343658563AdDb8827132d69EA196B5692795",
  "abi": [
    {
      "inputs": [
        {
          "internalType": "address",
          "name": "tokenAddress",
          "type": "address"
        }
      ],
      "stateMutability": "nonpayable",
      "type": "constructor"
    },
    {
      "anonymous": false,
      "inputs": [
        {
          "indexed": false,
          "internalType": "address",
          "name": "buyer",
          "type": "address"
        },
        {
          "indexed": false,
          "internalType": "uint256",
          "name": "amountOfEth",
          "type": "uint256"
        },
        {
          "indexed": false,
          "internalType": "uint256",
          "name": "amountOfTokens",
          "type": "uint256"
        }
      ],
      "name": "BuyTokens",
      "type": "event"
    },
    {
      "anonymous": false,
      "inputs": [
        {
          "indexed": true,
          "internalType": "address",
          "name": "previousOwner",
          "type": "address"
        },
        {
          "indexed": true,
          "internalType": "address",
          "name": "newOwner",
          "type": "address"
        }
      ],
      "name": "OwnershipTransferred",
      "type": "event"
    },
    {
      "inputs": [],
      "name": "buyTokens",
      "outputs": [],
      "stateMutability": "payable",
      "type": "function"
    },
    {
      "inputs": [],
      "name": "gold",
      "outputs": [
        {
          "internalType": "contract YourToken",
          "name": "",
          "type": "address"
        }
      ],
      "stateMutability": "view",
      "type": "function"
    },
    {
      "inputs": [],
      "name": "owner",
      "outputs": [
        {
          "internalType": "address",
          "name": "",
          "type": "address"
        }
      ],
      "stateMutability": "view",
      "type": "function"
    },
    {
      "inputs": [],
      "name": "renounceOwnership",
      "outputs": [],
      "stateMutability": "nonpayable",
      "type": "function"
    },
    {
      "inputs": [
        {
          "internalType": "uint256",
          "name": "tokenAmount",
          "type": "uint256"
        }
      ],
      "name": "sellTokens",
      "outputs": [],
      "stateMutability": "nonpayable",
      "type": "function"
    },
    {
      "inputs": [],
      "name": "tokensPerEth",
      "outputs": [
        {
          "internalType": "uint256",
          "name": "",
          "type": "uint256"
        }
      ],
      "stateMutability": "view",
      "type": "function"
    },
    {
      "inputs": [
        {
          "internalType": "address",
          "name": "newOwner",
          "type": "address"
        }
      ],
      "name": "transferOwnership",
      "outputs": [],
      "stateMutability": "nonpayable",
      "type": "function"
    },
    {
      "inputs": [],
      "name": "withdraw",
      "outputs": [],
      "stateMutability": "nonpayable",
      "type": "function"
    }
  ],
  "transactionHash": "0x890e58b055080e5c871e475b633a24760900f9630c42f7ccc16067e09deea07d",
  "args": [
    "0x5CEb80bF71B24DBc164341E81afacA8451cC4928"
  ],
  "solcInputHash": "f360a575e1f00b1e5f645f0607cd96e0",
  "bytecode": "0x608060405234801561001057600080fd5b506040516109d83803806109d883398101604081905261002f916100ad565b6100383361005d565b600180546001600160a01b0319166001600160a01b03929092169190911790556100dd565b600080546001600160a01b038381166001600160a01b0319831681178455604051919092169283917f8be0079c531659141344cd1fd0a4f28419497f9722a3daafe3b4186f6b6457e09190a35050565b6000602082840312156100bf57600080fd5b81516001600160a01b03811681146100d657600080fd5b9392505050565b6108ec806100ec6000396000f3fe60806040526004361061007b5760003560e01c8063cbdd69b51161004e578063cbdd69b514610103578063d0febe4c14610126578063f2fde38b1461012e578063fbec6f211461014e57600080fd5b80633ccfd60b146100805780636c11bcd314610097578063715018a6146100b75780638da5cb5b146100cc575b600080fd5b34801561008c57600080fd5b5061009561016e565b005b3480156100a357600080fd5b506100956100b2366004610800565b6101d4565b3480156100c357600080fd5b506100956104a4565b3480156100d857600080fd5b506000546001600160a01b03165b6040516001600160a01b0390911681526020015b60405180910390f35b34801561010f57600080fd5b50610118606481565b6040519081526020016100fa565b6100956104d8565b34801561013a57600080fd5b506100956101493660046107b5565b6106ab565b34801561015a57600080fd5b506001546100e6906001600160a01b031681565b6000546001600160a01b031633146101a15760405162461bcd60e51b815260040161019890610832565b60405180910390fd5b600047116101ae57600080fd5b60405133904780156108fc02916000818181858888f193505050506101d257600080fd5b565b303360006101e3846064610746565b6001546040516370a0823160e01b81526001600160a01b0385811660048301529293508692909116906370a082319060240160206040518083038186803b15801561022d57600080fd5b505afa158015610241573d6000803e3d6000fd5b505050506040513d601f19601f820116820180604052508101906102659190610819565b10156102a05760405162461bcd60e51b815260206004820152600a6024820152696e6f2062616c616e636560b01b6044820152606401610198565b600154604051636eb1769f60e11b81526001600160a01b0384811660048301528581166024830152600092169063dd62ed3e9060440160206040518083038186803b1580156102ee57600080fd5b505afa158015610302573d6000803e3d6000fd5b505050506040513d601f19601f820116820180604052508101906103269190610819565b9050808511156103695760405162461bcd60e51b815260206004820152600e60248201526d6e6f205f616c6c6f77616e63657360901b6044820152606401610198565b81846001600160a01b03163110156103ac5760405162461bcd60e51b81526020600482015260066024820152650dcde40cae8d60d31b6044820152606401610198565b6001546040516323b872dd60e01b81526001600160a01b038581166004830152868116602483015260448201889052909116906323b872dd90606401602060405180830381600087803b15801561040257600080fd5b505af1158015610416573d6000803e3d6000fd5b505050506040513d601f19601f8201168201806040525081019061043a91906107de565b506040516001600160a01b0384169083156108fc029084906000818181858888f1935050505061049d5760405162461bcd60e51b815260206004820152600e60248201526d39b2b7321032ba341032b93937b960911b6044820152606401610198565b5050505050565b6000546001600160a01b031633146104ce5760405162461bcd60e51b815260040161019890610832565b6101d26000610759565b34806105115760405162461bcd60e51b81526020600482015260086024820152670dccacac840cae8d60c31b6044820152606401610198565b600061051e8260646107a9565b6001546040516370a0823160e01b81523060048201529192506001600160a01b0316906370a082319060240160206040518083038186803b15801561056257600080fd5b505afa158015610576573d6000803e3d6000fd5b505050506040513d601f19601f8201168201806040525081019061059a9190610819565b8111156105e25760405162461bcd60e51b81526020600482015260166024820152756e6f2062616c616e63654f66286163636f756e74293b60501b6044820152606401610198565b60015460405163a9059cbb60e01b8152336004820152602481018390526001600160a01b039091169063a9059cbb90604401602060405180830381600087803b15801561062e57600080fd5b505af1158015610642573d6000803e3d6000fd5b505050506040513d601f19601f8201168201806040525081019061066691906107de565b50604080513381523460208201529081018290527f0a37b72bb67eee30e09084cf386f8a17817c57f620c3ab95fb25d6a20356ec779060600160405180910390a15050565b6000546001600160a01b031633146106d55760405162461bcd60e51b815260040161019890610832565b6001600160a01b03811661073a5760405162461bcd60e51b815260206004820152602660248201527f4f776e61626c653a206e6577206f776e657220697320746865207a65726f206160448201526564647265737360d01b6064820152608401610198565b61074381610759565b50565b60006107528284610867565b9392505050565b600080546001600160a01b038381166001600160a01b0319831681178455604051919092169283917f8be0079c531659141344cd1fd0a4f28419497f9722a3daafe3b4186f6b6457e09190a35050565b60006107528284610889565b6000602082840312156107c757600080fd5b81356001600160a01b038116811461075257600080fd5b6000602082840312156107f057600080fd5b8151801515811461075257600080fd5b60006020828403121561081257600080fd5b5035919050565b60006020828403121561082b57600080fd5b5051919050565b6020808252818101527f4f776e61626c653a2063616c6c6572206973206e6f7420746865206f776e6572604082015260600190565b60008261088457634e487b7160e01b600052601260045260246000fd5b500490565b60008160001904831182151516156108b157634e487b7160e01b600052601160045260246000fd5b50029056fea2646970667358221220dc6e4dc3c0eaf8ec5091648a59050072e726aff171235a24920ff8e0f6ff2cc764736f6c63430008060033",
  "devdoc": {
    "kind": "dev",
    "methods": {
      "owner()": {
        "details": "Returns the address of the current owner."
      },
      "renounceOwnership()": {
        "details": "Leaves the contract without owner. It will not be possible to call `onlyOwner` functions anymore. Can only be called by the current owner. NOTE: Renouncing ownership will leave the contract without an owner, thereby removing any functionality that is only available to the owner."
      },
      "transferOwnership(address)": {
        "details": "Transfers ownership of the contract to a new account (`newOwner`). Can only be called by the current owner."
      }
    },
    "version": 1
  },
  "userdoc": {
    "kind": "user",
    "methods": {},
    "version": 1
  },
  "storageLayout": {
    "storage": [
      {
        "astId": 7,
        "contract": "contracts/Vendor.sol:Vendor",
        "label": "_owner",
        "offset": 0,
        "slot": "0",
        "type": "t_address"
      },
      {
        "astId": 1096,
        "contract": "contracts/Vendor.sol:Vendor",
        "label": "gold",
        "offset": 0,
        "slot": "1",
        "type": "t_contract(YourToken)1309"
      }
    ],
    "types": {
      "t_address": {
        "encoding": "inplace",
        "label": "address",
        "numberOfBytes": "20"
      },
      "t_contract(YourToken)1309": {
        "encoding": "inplace",
        "label": "contract YourToken",
        "numberOfBytes": "20"
      }
    }
  }
}